{
  "_format": "hh-sol-artifact-1",
  "contractName": "NFTMarket",
  "sourceName": "contracts/NFTMarket.sol",
  "abi": [
    {
      "inputs": [],
      "stateMutability": "nonpayable",
      "type": "constructor"
    },
    {
      "anonymous": false,
      "inputs": [
        {
          "indexed": true,
          "internalType": "address",
          "name": "owner",
          "type": "address"
        },
        {
          "indexed": true,
          "internalType": "address",
          "name": "approved",
          "type": "address"
        },
        {
          "indexed": true,
          "internalType": "uint256",
          "name": "tokenId",
          "type": "uint256"
        }
      ],
      "name": "Approval",
      "type": "event"
    },
    {
      "anonymous": false,
      "inputs": [
        {
          "indexed": true,
          "internalType": "address",
          "name": "owner",
          "type": "address"
        },
        {
          "indexed": true,
          "internalType": "address",
          "name": "operator",
          "type": "address"
        },
        {
          "indexed": false,
          "internalType": "bool",
          "name": "approved",
          "type": "bool"
        }
      ],
      "name": "ApprovalForAll",
      "type": "event"
    },
    {
      "anonymous": false,
      "inputs": [
        {
          "indexed": true,
          "internalType": "uint256",
          "name": "tokenID",
          "type": "uint256"
        },
        {
          "indexed": true,
          "internalType": "address",
          "name": "from",
          "type": "address"
        },
        {
          "indexed": true,
          "internalType": "address",
          "name": "to",
          "type": "address"
        }
      ],
      "name": "NFTTransfer",
      "type": "event"
    },
    {
      "anonymous": false,
      "inputs": [
        {
          "indexed": true,
          "internalType": "address",
          "name": "previousOwner",
          "type": "address"
        },
        {
          "indexed": true,
          "internalType": "address",
          "name": "newOwner",
          "type": "address"
        }
      ],
      "name": "OwnershipTransferred",
      "type": "event"
    },
    {
      "anonymous": false,
      "inputs": [
        {
          "indexed": true,
          "internalType": "address",
          "name": "from",
          "type": "address"
        },
        {
          "indexed": true,
          "internalType": "address",
          "name": "to",
          "type": "address"
        },
        {
          "indexed": true,
          "internalType": "uint256",
          "name": "tokenId",
          "type": "uint256"
        }
      ],
      "name": "Transfer",
      "type": "event"
    },
    {
      "inputs": [],
      "name": "_tokenIDs",
      "outputs": [
        {
          "internalType": "uint256",
          "name": "_value",
          "type": "uint256"
        }
      ],
      "stateMutability": "view",
      "type": "function"
    },
    {
      "inputs": [
        {
          "internalType": "address",
          "name": "to",
          "type": "address"
        },
        {
          "internalType": "uint256",
          "name": "tokenId",
          "type": "uint256"
        }
      ],
      "name": "approve",
      "outputs": [],
      "stateMutability": "nonpayable",
      "type": "function"
    },
    {
      "inputs": [
        {
          "internalType": "address",
          "name": "owner",
          "type": "address"
        }
      ],
      "name": "balanceOf",
      "outputs": [
        {
          "internalType": "uint256",
          "name": "",
          "type": "uint256"
        }
      ],
      "stateMutability": "view",
      "type": "function"
    },
    {
      "inputs": [
        {
          "internalType": "uint256",
          "name": "tokenID",
          "type": "uint256"
        }
      ],
      "name": "buyNFT",
      "outputs": [],
      "stateMutability": "payable",
      "type": "function"
    },
    {
      "inputs": [
        {
          "internalType": "uint256",
          "name": "tokenID",
          "type": "uint256"
        }
      ],
      "name": "cancelListing",
      "outputs": [],
      "stateMutability": "nonpayable",
      "type": "function"
    },
    {
      "inputs": [
        {
          "internalType": "string",
          "name": "tokenURI",
          "type": "string"
        }
      ],
      "name": "createNFT",
      "outputs": [],
      "stateMutability": "nonpayable",
      "type": "function"
    },
    {
      "inputs": [
        {
          "internalType": "uint256",
          "name": "tokenId",
          "type": "uint256"
        }
      ],
      "name": "getApproved",
      "outputs": [
        {
          "internalType": "address",
          "name": "",
          "type": "address"
        }
      ],
      "stateMutability": "view",
      "type": "function"
    },
    {
      "inputs": [
        {
          "internalType": "address",
          "name": "owner",
          "type": "address"
        },
        {
          "internalType": "address",
          "name": "operator",
          "type": "address"
        }
      ],
      "name": "isApprovedForAll",
      "outputs": [
        {
          "internalType": "bool",
          "name": "",
          "type": "bool"
        }
      ],
      "stateMutability": "view",
      "type": "function"
    },
    {
      "inputs": [
        {
          "internalType": "uint256",
          "name": "",
          "type": "uint256"
        }
      ],
      "name": "items",
      "outputs": [
        {
          "internalType": "address",
          "name": "owner",
          "type": "address"
        },
        {
          "internalType": "enum NFTMarket.NFTStatus",
          "name": "status",
          "type": "uint8"
        },
        {
          "internalType": "uint256",
          "name": "tokenId",
          "type": "uint256"
        },
        {
          "internalType": "string",
          "name": "tokenURI",
          "type": "string"
        },
        {
          "internalType": "uint256",
          "name": "price",
          "type": "uint256"
        }
      ],
      "stateMutability": "view",
      "type": "function"
    },
    {
      "inputs": [
        {
          "internalType": "uint256",
          "name": "tokenID",
          "type": "uint256"
        },
        {
          "internalType": "uint256",
          "name": "price",
          "type": "uint256"
        }
      ],
      "name": "listNFT",
      "outputs": [],
      "stateMutability": "nonpayable",
      "type": "function"
    },
    {
      "inputs": [],
      "name": "name",
      "outputs": [
        {
          "internalType": "string",
          "name": "",
          "type": "string"
        }
      ],
      "stateMutability": "view",
      "type": "function"
    },
    {
      "inputs": [],
      "name": "owner",
      "outputs": [
        {
          "internalType": "address",
          "name": "",
          "type": "address"
        }
      ],
      "stateMutability": "view",
      "type": "function"
    },
    {
      "inputs": [
        {
          "internalType": "uint256",
          "name": "tokenId",
          "type": "uint256"
        }
      ],
      "name": "ownerOf",
      "outputs": [
        {
          "internalType": "address",
          "name": "",
          "type": "address"
        }
      ],
      "stateMutability": "view",
      "type": "function"
    },
    {
      "inputs": [],
      "name": "renounceOwnership",
      "outputs": [],
      "stateMutability": "nonpayable",
      "type": "function"
    },
    {
      "inputs": [
        {
          "internalType": "address",
          "name": "from",
          "type": "address"
        },
        {
          "internalType": "address",
          "name": "to",
          "type": "address"
        },
        {
          "internalType": "uint256",
          "name": "tokenId",
          "type": "uint256"
        }
      ],
      "name": "safeTransferFrom",
      "outputs": [],
      "stateMutability": "nonpayable",
      "type": "function"
    },
    {
      "inputs": [
        {
          "internalType": "address",
          "name": "from",
          "type": "address"
        },
        {
          "internalType": "address",
          "name": "to",
          "type": "address"
        },
        {
          "internalType": "uint256",
          "name": "tokenId",
          "type": "uint256"
        },
        {
          "internalType": "bytes",
          "name": "data",
          "type": "bytes"
        }
      ],
      "name": "safeTransferFrom",
      "outputs": [],
      "stateMutability": "nonpayable",
      "type": "function"
    },
    {
      "inputs": [
        {
          "internalType": "address",
          "name": "operator",
          "type": "address"
        },
        {
          "internalType": "bool",
          "name": "approved",
          "type": "bool"
        }
      ],
      "name": "setApprovalForAll",
      "outputs": [],
      "stateMutability": "nonpayable",
      "type": "function"
    },
    {
      "inputs": [
        {
          "internalType": "bytes4",
          "name": "interfaceId",
          "type": "bytes4"
        }
      ],
      "name": "supportsInterface",
      "outputs": [
        {
          "internalType": "bool",
          "name": "",
          "type": "bool"
        }
      ],
      "stateMutability": "view",
      "type": "function"
    },
    {
      "inputs": [],
      "name": "symbol",
      "outputs": [
        {
          "internalType": "string",
          "name": "",
          "type": "string"
        }
      ],
      "stateMutability": "view",
      "type": "function"
    },
    {
      "inputs": [
        {
          "internalType": "uint256",
          "name": "tokenId",
          "type": "uint256"
        }
      ],
      "name": "tokenURI",
      "outputs": [
        {
          "internalType": "string",
          "name": "",
          "type": "string"
        }
      ],
      "stateMutability": "view",
      "type": "function"
    },
    {
      "inputs": [
        {
          "internalType": "address",
          "name": "from",
          "type": "address"
        },
        {
          "internalType": "address",
          "name": "to",
          "type": "address"
        },
        {
          "internalType": "uint256",
          "name": "tokenId",
          "type": "uint256"
        }
      ],
      "name": "transferFrom",
      "outputs": [],
      "stateMutability": "nonpayable",
      "type": "function"
    },
    {
      "inputs": [
        {
          "internalType": "address",
          "name": "newOwner",
          "type": "address"
        }
      ],
      "name": "transferOwnership",
      "outputs": [],
      "stateMutability": "nonpayable",
      "type": "function"
    },
    {
      "inputs": [],
      "name": "withdrawFunds",
      "outputs": [],
      "stateMutability": "nonpayable",
      "type": "function"
    }
  ],
  "bytecode": "0x60806040523480156200001157600080fd5b506040518060400160405280600b81526020017f424c41422773204e4654730000000000000000000000000000000000000000008152506040518060400160405280600681526020017f424c414e4654000000000000000000000000000000000000000000000000000081525081600090816200008f919062000412565b508060019081620000a1919062000412565b505050620000c4620000b8620000ca60201b60201c565b620000d260201b60201c565b620004f9565b600033905090565b6000600760009054906101000a900473ffffffffffffffffffffffffffffffffffffffff16905081600760006101000a81548173ffffffffffffffffffffffffffffffffffffffff021916908373ffffffffffffffffffffffffffffffffffffffff1602179055508173ffffffffffffffffffffffffffffffffffffffff168173ffffffffffffffffffffffffffffffffffffffff167f8be0079c531659141344cd1fd0a4f28419497f9722a3daafe3b4186f6b6457e060405160405180910390a35050565b600081519050919050565b7f4e487b7100000000000000000000000000000000000000000000000000000000600052604160045260246000fd5b7f4e487b7100000000000000000000000000000000000000000000000000000000600052602260045260246000fd5b600060028204905060018216806200021a57607f821691505b60208210810362000230576200022f620001d2565b5b50919050565b60008190508160005260206000209050919050565b60006020601f8301049050919050565b600082821b905092915050565b6000600883026200029a7fffffffffffffffffffffffffffffffffffffffffffffffffffffffffffffffff826200025b565b620002a686836200025b565b95508019841693508086168417925050509392505050565b6000819050919050565b6000819050919050565b6000620002f3620002ed620002e784620002be565b620002c8565b620002be565b9050919050565b6000819050919050565b6200030f83620002d2565b620003276200031e82620002fa565b84845462000268565b825550505050565b600090565b6200033e6200032f565b6200034b81848462000304565b505050565b5b8181101562000373576200036760008262000334565b60018101905062000351565b5050565b601f821115620003c2576200038c8162000236565b62000397846200024b565b81016020851015620003a7578190505b620003bf620003b6856200024b565b83018262000350565b50505b505050565b600082821c905092915050565b6000620003e760001984600802620003c7565b1980831691505092915050565b6000620004028383620003d4565b9150826002028217905092915050565b6200041d8262000198565b67ffffffffffffffff811115620004395762000438620001a3565b5b62000445825462000201565b6200045282828562000377565b600060209050601f8311600181146200048a576000841562000475578287015190505b620004818582620003f4565b865550620004f1565b601f1984166200049a8662000236565b60005b82811015620004c4578489015182556001820191506020850194506020810190506200049d565b86831015620004e45784890151620004e0601f891682620003d4565b8355505b6001600288020188555050505b505050505050565b613e1d80620005096000396000f3fe6080604052600436106101405760003560e01c806370a08231116100b6578063b88d4fde1161006f578063b88d4fde14610425578063bfb231d21461044e578063c87b56dd1461048f578063da2ed03e146104cc578063e985e9c5146104f5578063f2fde38b1461053257610140565b806370a0823114610329578063715018a6146103665780638da5cb5b1461037d57806394383f14146103a857806395d89b41146103d1578063a22cb465146103fc57610140565b806324600fc31161010857806324600fc31461023c578063305a67a8146102535780633f9bbc4f1461027c57806342842e0e146102a757806351ed8288146102d05780636352211e146102ec57610140565b806301ffc9a71461014557806306fdde0314610182578063081812fc146101ad578063095ea7b3146101ea57806323b872dd14610213575b600080fd5b34801561015157600080fd5b5061016c6004803603810190610167919061280c565b61055b565b6040516101799190612854565b60405180910390f35b34801561018e57600080fd5b5061019761063d565b6040516101a491906128ff565b60405180910390f35b3480156101b957600080fd5b506101d460048036038101906101cf9190612957565b6106cf565b6040516101e191906129c5565b60405180910390f35b3480156101f657600080fd5b50610211600480360381019061020c9190612a0c565b610715565b005b34801561021f57600080fd5b5061023a60048036038101906102359190612a4c565b61082c565b005b34801561024857600080fd5b5061025161088c565b005b34801561025f57600080fd5b5061027a60048036038101906102759190612957565b610926565b005b34801561028857600080fd5b50610291610b70565b60405161029e9190612aae565b60405180910390f35b3480156102b357600080fd5b506102ce60048036038101906102c99190612a4c565b610b7c565b005b6102ea60048036038101906102e59190612957565b610b9c565b005b3480156102f857600080fd5b50610313600480360381019061030e9190612957565b610e94565b60405161032091906129c5565b60405180910390f35b34801561033557600080fd5b50610350600480360381019061034b9190612ac9565b610f1a565b60405161035d9190612aae565b60405180910390f35b34801561037257600080fd5b5061037b610fd1565b005b34801561038957600080fd5b50610392610fe5565b60405161039f91906129c5565b60405180910390f35b3480156103b457600080fd5b506103cf60048036038101906103ca9190612af6565b61100f565b005b3480156103dd57600080fd5b506103e661111c565b6040516103f391906128ff565b60405180910390f35b34801561040857600080fd5b50610423600480360381019061041e9190612b62565b6111ae565b005b34801561043157600080fd5b5061044c60048036038101906104479190612cd7565b6111c4565b005b34801561045a57600080fd5b5061047560048036038101906104709190612957565b611226565b604051610486959493929190612dd1565b60405180910390f35b34801561049b57600080fd5b506104b660048036038101906104b19190612957565b611311565b6040516104c391906128ff565b60405180910390f35b3480156104d857600080fd5b506104f360048036038101906104ee9190612e8b565b611423565b005b34801561050157600080fd5b5061051c60048036038101906105179190612ed8565b611652565b6040516105299190612854565b60405180910390f35b34801561053e57600080fd5b5061055960048036038101906105549190612ac9565b6116e6565b005b60007f80ac58cd000000000000000000000000000000000000000000000000000000007bffffffffffffffffffffffffffffffffffffffffffffffffffffffff1916827bffffffffffffffffffffffffffffffffffffffffffffffffffffffff1916148061062657507f5b5e139f000000000000000000000000000000000000000000000000000000007bffffffffffffffffffffffffffffffffffffffffffffffffffffffff1916827bffffffffffffffffffffffffffffffffffffffffffffffffffffffff1916145b80610636575061063582611769565b5b9050919050565b60606000805461064c90612f47565b80601f016020809104026020016040519081016040528092919081815260200182805461067890612f47565b80156106c55780601f1061069a576101008083540402835291602001916106c5565b820191906000526020600020905b8154815290600101906020018083116106a857829003601f168201915b5050505050905090565b60006106da826117d3565b6004600083815260200190815260200160002060009054906101000a900473ffffffffffffffffffffffffffffffffffffffff169050919050565b600061072082610e94565b90508073ffffffffffffffffffffffffffffffffffffffff168373ffffffffffffffffffffffffffffffffffffffff1603610790576040517f08c379a000000000000000000000000000000000000000000000000000000000815260040161078790612fea565b60405180910390fd5b8073ffffffffffffffffffffffffffffffffffffffff166107af61181e565b73ffffffffffffffffffffffffffffffffffffffff1614806107de57506107dd816107d861181e565b611652565b5b61081d576040517f08c379a00000000000000000000000000000000000000000000000000000000081526004016108149061307c565b60405180910390fd5b6108278383611826565b505050565b61083d61083761181e565b826118df565b61087c576040517f08c379a00000000000000000000000000000000000000000000000000000000081526004016108739061310e565b60405180910390fd5b610887838383611974565b505050565b610894611c6d565b6000479050600081116108dc576040517f08c379a00000000000000000000000000000000000000000000000000000000081526004016108d39061317a565b60405180910390fd5b3373ffffffffffffffffffffffffffffffffffffffff166108fc829081150290604051600060405180830381858888f19350505050158015610922573d6000803e3d6000fd5b5050565b60006009600083815260200190815260200160002090506000816003015411610984576040517f08c379a000000000000000000000000000000000000000000000000000000000815260040161097b9061320c565b60405180910390fd5b3373ffffffffffffffffffffffffffffffffffffffff168160000160009054906101000a900473ffffffffffffffffffffffffffffffffffffffff1673ffffffffffffffffffffffffffffffffffffffff1614610a16576040517f08c379a0000000000000000000000000000000000000000000000000000000008152600401610a0d90613278565b60405180910390fd5b338160000160006101000a81548173ffffffffffffffffffffffffffffffffffffffff021916908373ffffffffffffffffffffffffffffffffffffffff16021790555060006002811115610a6d57610a6c612d5a565b5b8160000160146101000a81548160ff02191690836002811115610a9357610a92612d5a565b5b0217905550600081600301819055503073ffffffffffffffffffffffffffffffffffffffff166323b872dd3033856040518463ffffffff1660e01b8152600401610adf93929190613298565b600060405180830381600087803b158015610af957600080fd5b505af1158015610b0d573d6000803e3d6000fd5b505050503373ffffffffffffffffffffffffffffffffffffffff163073ffffffffffffffffffffffffffffffffffffffff16837f9a6430886c1b529daa4ee891154fa59de6f72582365ec268e3dbf0740647f8b960405160405180910390a45050565b60088060000154905081565b610b97838383604051806020016040528060008152506111c4565b505050565b60006009600083815260200190815260200160002090506000816003015411610bfa576040517f08c379a0000000000000000000000000000000000000000000000000000000008152600401610bf19061320c565b60405180910390fd5b80600301543414610c40576040517f08c379a0000000000000000000000000000000000000000000000000000000008152600401610c379061331b565b60405180910390fd5b3073ffffffffffffffffffffffffffffffffffffffff166323b872dd3033856040518463ffffffff1660e01b8152600401610c7d93929190613298565b600060405180830381600087803b158015610c9757600080fd5b505af1158015610cab573d6000803e3d6000fd5b5050505060006009600084815260200190815260200160002060000160009054906101000a900473ffffffffffffffffffffffffffffffffffffffff169050600060096000858152602001908152602001600020600301549050336009600086815260200190815260200160002060000160006101000a81548173ffffffffffffffffffffffffffffffffffffffff021916908373ffffffffffffffffffffffffffffffffffffffff160217905550600280811115610d6d57610d6c612d5a565b5b6009600086815260200190815260200160002060000160146101000a81548160ff02191690836002811115610da557610da4612d5a565b5b0217905550600060096000868152602001908152602001600020600301819055508173ffffffffffffffffffffffffffffffffffffffff166108fc610e076064610df9605f86611ceb90919063ffffffff16565b611d0190919063ffffffff16565b9081150290604051600060405180830381858888f19350505050158015610e32573d6000803e3d6000fd5b503373ffffffffffffffffffffffffffffffffffffffff163073ffffffffffffffffffffffffffffffffffffffff16857f9a6430886c1b529daa4ee891154fa59de6f72582365ec268e3dbf0740647f8b960405160405180910390a450505050565b600080610ea083611d17565b9050600073ffffffffffffffffffffffffffffffffffffffff168173ffffffffffffffffffffffffffffffffffffffff1603610f11576040517f08c379a0000000000000000000000000000000000000000000000000000000008152600401610f0890613387565b60405180910390fd5b80915050919050565b60008073ffffffffffffffffffffffffffffffffffffffff168273ffffffffffffffffffffffffffffffffffffffff1603610f8a576040517f08c379a0000000000000000000000000000000000000000000000000000000008152600401610f8190613419565b60405180910390fd5b600360008373ffffffffffffffffffffffffffffffffffffffff1673ffffffffffffffffffffffffffffffffffffffff168152602001908152602001600020549050919050565b610fd9611c6d565b610fe36000611d54565b565b6000600760009054906101000a900473ffffffffffffffffffffffffffffffffffffffff16905090565b600060096000848152602001908152602001600020905060008211611069576040517f08c379a0000000000000000000000000000000000000000000000000000000008152600401611060906134ab565b60405180910390fd5b61107433308561082c565b6001600281111561108857611087612d5a565b5b8160000160146101000a81548160ff021916908360028111156110ae576110ad612d5a565b5b02179055508181600301819055503073ffffffffffffffffffffffffffffffffffffffff163373ffffffffffffffffffffffffffffffffffffffff16847f9a6430886c1b529daa4ee891154fa59de6f72582365ec268e3dbf0740647f8b960405160405180910390a4505050565b60606001805461112b90612f47565b80601f016020809104026020016040519081016040528092919081815260200182805461115790612f47565b80156111a45780601f10611179576101008083540402835291602001916111a4565b820191906000526020600020905b81548152906001019060200180831161118757829003601f168201915b5050505050905090565b6111c06111b961181e565b8383611e1a565b5050565b6111d56111cf61181e565b836118df565b611214576040517f08c379a000000000000000000000000000000000000000000000000000000000815260040161120b9061310e565b60405180910390fd5b61122084848484611f86565b50505050565b60096020528060005260406000206000915090508060000160009054906101000a900473ffffffffffffffffffffffffffffffffffffffff16908060000160149054906101000a900460ff169080600101549080600201805461128890612f47565b80601f01602080910402602001604051908101604052809291908181526020018280546112b490612f47565b80156113015780601f106112d657610100808354040283529160200191611301565b820191906000526020600020905b8154815290600101906020018083116112e457829003601f168201915b5050505050908060030154905085565b606061131c826117d3565b600060066000848152602001908152602001600020805461133c90612f47565b80601f016020809104026020016040519081016040528092919081815260200182805461136890612f47565b80156113b55780601f1061138a576101008083540402835291602001916113b5565b820191906000526020600020905b81548152906001019060200180831161139857829003601f168201915b5050505050905060006113c6611fe2565b905060008151036113db57819250505061141e565b6000825111156114105780826040516020016113f8929190613507565b6040516020818303038152906040529250505061141e565b61141984611ff9565b925050505b919050565b61142d6008612061565b60006114396008612077565b90506114453382612085565b6114938184848080601f016020809104026020016040519081016040528093929190818152602001838380828437600081840152601f19601f820116905080830192505050505050506120a3565b6040518060a001604052803373ffffffffffffffffffffffffffffffffffffffff168152602001600060028111156114ce576114cd612d5a565b5b60028111156114e0576114df612d5a565b5b815260200182815260200184848080601f016020809104026020016040519081016040528093929190818152602001838380828437600081840152601f19601f82011690508083019250505050505050815260200160008152506009600083815260200190815260200160002060008201518160000160006101000a81548173ffffffffffffffffffffffffffffffffffffffff021916908373ffffffffffffffffffffffffffffffffffffffff16021790555060208201518160000160146101000a81548160ff021916908360028111156115bf576115be612d5a565b5b02179055506040820151816001015560608201518160020190816115e391906136d7565b50608082015181600301559050503373ffffffffffffffffffffffffffffffffffffffff16600073ffffffffffffffffffffffffffffffffffffffff16827f9a6430886c1b529daa4ee891154fa59de6f72582365ec268e3dbf0740647f8b960405160405180910390a4505050565b6000600560008473ffffffffffffffffffffffffffffffffffffffff1673ffffffffffffffffffffffffffffffffffffffff16815260200190815260200160002060008373ffffffffffffffffffffffffffffffffffffffff1673ffffffffffffffffffffffffffffffffffffffff16815260200190815260200160002060009054906101000a900460ff16905092915050565b6116ee611c6d565b600073ffffffffffffffffffffffffffffffffffffffff168173ffffffffffffffffffffffffffffffffffffffff160361175d576040517f08c379a00000000000000000000000000000000000000000000000000000000081526004016117549061381b565b60405180910390fd5b61176681611d54565b50565b60007f01ffc9a7000000000000000000000000000000000000000000000000000000007bffffffffffffffffffffffffffffffffffffffffffffffffffffffff1916827bffffffffffffffffffffffffffffffffffffffffffffffffffffffff1916149050919050565b6117dc81612110565b61181b576040517f08c379a000000000000000000000000000000000000000000000000000000000815260040161181290613387565b60405180910390fd5b50565b600033905090565b816004600083815260200190815260200160002060006101000a81548173ffffffffffffffffffffffffffffffffffffffff021916908373ffffffffffffffffffffffffffffffffffffffff160217905550808273ffffffffffffffffffffffffffffffffffffffff1661189983610e94565b73ffffffffffffffffffffffffffffffffffffffff167f8c5be1e5ebec7d5bd14f71427d1e84f3dd0314c0f7b2291e5b200ac8c7c3b92560405160405180910390a45050565b6000806118eb83610e94565b90508073ffffffffffffffffffffffffffffffffffffffff168473ffffffffffffffffffffffffffffffffffffffff16148061192d575061192c8185611652565b5b8061196b57508373ffffffffffffffffffffffffffffffffffffffff16611953846106cf565b73ffffffffffffffffffffffffffffffffffffffff16145b91505092915050565b8273ffffffffffffffffffffffffffffffffffffffff1661199482610e94565b73ffffffffffffffffffffffffffffffffffffffff16146119ea576040517f08c379a00000000000000000000000000000000000000000000000000000000081526004016119e1906138ad565b60405180910390fd5b600073ffffffffffffffffffffffffffffffffffffffff168273ffffffffffffffffffffffffffffffffffffffff1603611a59576040517f08c379a0000000000000000000000000000000000000000000000000000000008152600401611a509061393f565b60405180910390fd5b611a668383836001612151565b8273ffffffffffffffffffffffffffffffffffffffff16611a8682610e94565b73ffffffffffffffffffffffffffffffffffffffff1614611adc576040517f08c379a0000000000000000000000000000000000000000000000000000000008152600401611ad3906138ad565b60405180910390fd5b6004600082815260200190815260200160002060006101000a81549073ffffffffffffffffffffffffffffffffffffffff02191690556001600360008573ffffffffffffffffffffffffffffffffffffffff1673ffffffffffffffffffffffffffffffffffffffff168152602001908152602001600020600082825403925050819055506001600360008473ffffffffffffffffffffffffffffffffffffffff1673ffffffffffffffffffffffffffffffffffffffff16815260200190815260200160002060008282540192505081905550816002600083815260200190815260200160002060006101000a81548173ffffffffffffffffffffffffffffffffffffffff021916908373ffffffffffffffffffffffffffffffffffffffff160217905550808273ffffffffffffffffffffffffffffffffffffffff168473ffffffffffffffffffffffffffffffffffffffff167fddf252ad1be2c89b69c2b068fc378daa952ba7f163c4a11628f55a4df523b3ef60405160405180910390a4611c688383836001612157565b505050565b611c7561181e565b73ffffffffffffffffffffffffffffffffffffffff16611c93610fe5565b73ffffffffffffffffffffffffffffffffffffffff1614611ce9576040517f08c379a0000000000000000000000000000000000000000000000000000000008152600401611ce0906139ab565b60405180910390fd5b565b60008183611cf991906139fa565b905092915050565b60008183611d0f9190613a6b565b905092915050565b60006002600083815260200190815260200160002060009054906101000a900473ffffffffffffffffffffffffffffffffffffffff169050919050565b6000600760009054906101000a900473ffffffffffffffffffffffffffffffffffffffff16905081600760006101000a81548173ffffffffffffffffffffffffffffffffffffffff021916908373ffffffffffffffffffffffffffffffffffffffff1602179055508173ffffffffffffffffffffffffffffffffffffffff168173ffffffffffffffffffffffffffffffffffffffff167f8be0079c531659141344cd1fd0a4f28419497f9722a3daafe3b4186f6b6457e060405160405180910390a35050565b8173ffffffffffffffffffffffffffffffffffffffff168373ffffffffffffffffffffffffffffffffffffffff1603611e88576040517f08c379a0000000000000000000000000000000000000000000000000000000008152600401611e7f90613ae8565b60405180910390fd5b80600560008573ffffffffffffffffffffffffffffffffffffffff1673ffffffffffffffffffffffffffffffffffffffff16815260200190815260200160002060008473ffffffffffffffffffffffffffffffffffffffff1673ffffffffffffffffffffffffffffffffffffffff16815260200190815260200160002060006101000a81548160ff0219169083151502179055508173ffffffffffffffffffffffffffffffffffffffff168373ffffffffffffffffffffffffffffffffffffffff167f17307eab39ab6107e8899845ad3d59bd9653f200f220920489ca2b5937696c3183604051611f799190612854565b60405180910390a3505050565b611f91848484611974565b611f9d8484848461215d565b611fdc576040517f08c379a0000000000000000000000000000000000000000000000000000000008152600401611fd390613b7a565b60405180910390fd5b50505050565b606060405180602001604052806000815250905090565b6060612004826117d3565b600061200e611fe2565b9050600081511161202e5760405180602001604052806000815250612059565b80612038846122e4565b604051602001612049929190613507565b6040516020818303038152906040525b915050919050565b6001816000016000828254019250508190555050565b600081600001549050919050565b61209f8282604051806020016040528060008152506123b2565b5050565b6120ac82612110565b6120eb576040517f08c379a00000000000000000000000000000000000000000000000000000000081526004016120e290613c0c565b60405180910390fd5b8060066000848152602001908152602001600020908161210b91906136d7565b505050565b60008073ffffffffffffffffffffffffffffffffffffffff1661213283611d17565b73ffffffffffffffffffffffffffffffffffffffff1614159050919050565b50505050565b50505050565b600061217e8473ffffffffffffffffffffffffffffffffffffffff1661240d565b156122d7578373ffffffffffffffffffffffffffffffffffffffff1663150b7a026121a761181e565b8786866040518563ffffffff1660e01b81526004016121c99493929190613c81565b6020604051808303816000875af192505050801561220557506040513d601f19601f820116820180604052508101906122029190613ce2565b60015b612287573d8060008114612235576040519150601f19603f3d011682016040523d82523d6000602084013e61223a565b606091505b50600081510361227f576040517f08c379a000000000000000000000000000000000000000000000000000000000815260040161227690613b7a565b60405180910390fd5b805181602001fd5b63150b7a0260e01b7bffffffffffffffffffffffffffffffffffffffffffffffffffffffff1916817bffffffffffffffffffffffffffffffffffffffffffffffffffffffff1916149150506122dc565b600190505b949350505050565b6060600060016122f384612430565b01905060008167ffffffffffffffff81111561231257612311612bac565b5b6040519080825280601f01601f1916602001820160405280156123445781602001600182028036833780820191505090505b509050600082602001820190505b6001156123a7578080600190039150507f3031323334353637383961626364656600000000000000000000000000000000600a86061a8153600a858161239b5761239a613a3c565b5b04945060008503612352575b819350505050919050565b6123bc8383612583565b6123c9600084848461215d565b612408576040517f08c379a00000000000000000000000000000000000000000000000000000000081526004016123ff90613b7a565b60405180910390fd5b505050565b6000808273ffffffffffffffffffffffffffffffffffffffff163b119050919050565b600080600090507a184f03e93ff9f4daa797ed6e38ed64bf6a1f010000000000000000831061248e577a184f03e93ff9f4daa797ed6e38ed64bf6a1f010000000000000000838161248457612483613a3c565b5b0492506040810190505b6d04ee2d6d415b85acef810000000083106124cb576d04ee2d6d415b85acef810000000083816124c1576124c0613a3c565b5b0492506020810190505b662386f26fc1000083106124fa57662386f26fc1000083816124f0576124ef613a3c565b5b0492506010810190505b6305f5e1008310612523576305f5e100838161251957612518613a3c565b5b0492506008810190505b612710831061254857612710838161253e5761253d613a3c565b5b0492506004810190505b6064831061256b576064838161256157612560613a3c565b5b0492506002810190505b600a831061257a576001810190505b80915050919050565b600073ffffffffffffffffffffffffffffffffffffffff168273ffffffffffffffffffffffffffffffffffffffff16036125f2576040517f08c379a00000000000000000000000000000000000000000000000000000000081526004016125e990613d5b565b60405180910390fd5b6125fb81612110565b1561263b576040517f08c379a000000000000000000000000000000000000000000000000000000000815260040161263290613dc7565b60405180910390fd5b612649600083836001612151565b61265281612110565b15612692576040517f08c379a000000000000000000000000000000000000000000000000000000000815260040161268990613dc7565b60405180910390fd5b6001600360008473ffffffffffffffffffffffffffffffffffffffff1673ffffffffffffffffffffffffffffffffffffffff16815260200190815260200160002060008282540192505081905550816002600083815260200190815260200160002060006101000a81548173ffffffffffffffffffffffffffffffffffffffff021916908373ffffffffffffffffffffffffffffffffffffffff160217905550808273ffffffffffffffffffffffffffffffffffffffff16600073ffffffffffffffffffffffffffffffffffffffff167fddf252ad1be2c89b69c2b068fc378daa952ba7f163c4a11628f55a4df523b3ef60405160405180910390a461279c600083836001612157565b5050565b6000604051905090565b600080fd5b600080fd5b60007fffffffff0000000000000000000000000000000000000000000000000000000082169050919050565b6127e9816127b4565b81146127f457600080fd5b50565b600081359050612806816127e0565b92915050565b600060208284031215612822576128216127aa565b5b6000612830848285016127f7565b91505092915050565b60008115159050919050565b61284e81612839565b82525050565b60006020820190506128696000830184612845565b92915050565b600081519050919050565b600082825260208201905092915050565b60005b838110156128a957808201518184015260208101905061288e565b60008484015250505050565b6000601f19601f8301169050919050565b60006128d18261286f565b6128db818561287a565b93506128eb81856020860161288b565b6128f4816128b5565b840191505092915050565b6000602082019050818103600083015261291981846128c6565b905092915050565b6000819050919050565b61293481612921565b811461293f57600080fd5b50565b6000813590506129518161292b565b92915050565b60006020828403121561296d5761296c6127aa565b5b600061297b84828501612942565b91505092915050565b600073ffffffffffffffffffffffffffffffffffffffff82169050919050565b60006129af82612984565b9050919050565b6129bf816129a4565b82525050565b60006020820190506129da60008301846129b6565b92915050565b6129e9816129a4565b81146129f457600080fd5b50565b600081359050612a06816129e0565b92915050565b60008060408385031215612a2357612a226127aa565b5b6000612a31858286016129f7565b9250506020612a4285828601612942565b9150509250929050565b600080600060608486031215612a6557612a646127aa565b5b6000612a73868287016129f7565b9350506020612a84868287016129f7565b9250506040612a9586828701612942565b9150509250925092565b612aa881612921565b82525050565b6000602082019050612ac36000830184612a9f565b92915050565b600060208284031215612adf57612ade6127aa565b5b6000612aed848285016129f7565b91505092915050565b60008060408385031215612b0d57612b0c6127aa565b5b6000612b1b85828601612942565b9250506020612b2c85828601612942565b9150509250929050565b612b3f81612839565b8114612b4a57600080fd5b50565b600081359050612b5c81612b36565b92915050565b60008060408385031215612b7957612b786127aa565b5b6000612b87858286016129f7565b9250506020612b9885828601612b4d565b9150509250929050565b600080fd5b600080fd5b7f4e487b7100000000000000000000000000000000000000000000000000000000600052604160045260246000fd5b612be4826128b5565b810181811067ffffffffffffffff82111715612c0357612c02612bac565b5b80604052505050565b6000612c166127a0565b9050612c228282612bdb565b919050565b600067ffffffffffffffff821115612c4257612c41612bac565b5b612c4b826128b5565b9050602081019050919050565b82818337600083830152505050565b6000612c7a612c7584612c27565b612c0c565b905082815260208101848484011115612c9657612c95612ba7565b5b612ca1848285612c58565b509392505050565b600082601f830112612cbe57612cbd612ba2565b5b8135612cce848260208601612c67565b91505092915050565b60008060008060808587031215612cf157612cf06127aa565b5b6000612cff878288016129f7565b9450506020612d10878288016129f7565b9350506040612d2187828801612942565b925050606085013567ffffffffffffffff811115612d4257612d416127af565b5b612d4e87828801612ca9565b91505092959194509250565b7f4e487b7100000000000000000000000000000000000000000000000000000000600052602160045260246000fd5b60038110612d9a57612d99612d5a565b5b50565b6000819050612dab82612d89565b919050565b6000612dbb82612d9d565b9050919050565b612dcb81612db0565b82525050565b600060a082019050612de660008301886129b6565b612df36020830187612dc2565b612e006040830186612a9f565b8181036060830152612e1281856128c6565b9050612e216080830184612a9f565b9695505050505050565b600080fd5b600080fd5b60008083601f840112612e4b57612e4a612ba2565b5b8235905067ffffffffffffffff811115612e6857612e67612e2b565b5b602083019150836001820283011115612e8457612e83612e30565b5b9250929050565b60008060208385031215612ea257612ea16127aa565b5b600083013567ffffffffffffffff811115612ec057612ebf6127af565b5b612ecc85828601612e35565b92509250509250929050565b60008060408385031215612eef57612eee6127aa565b5b6000612efd858286016129f7565b9250506020612f0e858286016129f7565b9150509250929050565b7f4e487b7100000000000000000000000000000000000000000000000000000000600052602260045260246000fd5b60006002820490506001821680612f5f57607f821691505b602082108103612f7257612f71612f18565b5b50919050565b7f4552433732313a20617070726f76616c20746f2063757272656e74206f776e6560008201527f7200000000000000000000000000000000000000000000000000000000000000602082015250565b6000612fd460218361287a565b9150612fdf82612f78565b604082019050919050565b6000602082019050818103600083015261300381612fc7565b9050919050565b7f4552433732313a20617070726f76652063616c6c6572206973206e6f7420746f60008201527f6b656e206f776e6572206f7220617070726f76656420666f7220616c6c000000602082015250565b6000613066603d8361287a565b91506130718261300a565b604082019050919050565b6000602082019050818103600083015261309581613059565b9050919050565b7f4552433732313a2063616c6c6572206973206e6f7420746f6b656e206f776e6560008201527f72206f7220617070726f76656400000000000000000000000000000000000000602082015250565b60006130f8602d8361287a565b91506131038261309c565b604082019050919050565b60006020820190508181036000830152613127816130eb565b9050919050565b7f4e46544d61726b65743a2062616c616e6365206973207a65726f000000000000600082015250565b6000613164601a8361287a565b915061316f8261312e565b602082019050919050565b6000602082019050818103600083015261319381613157565b9050919050565b7f4e46544d61726b65743a206e6674206e6f74206c697374656420666f7220736160008201527f6c65000000000000000000000000000000000000000000000000000000000000602082015250565b60006131f660228361287a565b91506132018261319a565b604082019050919050565b60006020820190508181036000830152613225816131e9565b9050919050565b7f4e46544d61726b65743a20796f75277265206e6f74207468652073656c6c6572600082015250565b600061326260208361287a565b915061326d8261322c565b602082019050919050565b6000602082019050818103600083015261329181613255565b9050919050565b60006060820190506132ad60008301866129b6565b6132ba60208301856129b6565b6132c76040830184612a9f565b949350505050565b7f4e46544d61726b65743a20696e636f7272656374207072696365000000000000600082015250565b6000613305601a8361287a565b9150613310826132cf565b602082019050919050565b60006020820190508181036000830152613334816132f8565b9050919050565b7f4552433732313a20696e76616c696420746f6b656e2049440000000000000000600082015250565b600061337160188361287a565b915061337c8261333b565b602082019050919050565b600060208201905081810360008301526133a081613364565b9050919050565b7f4552433732313a2061646472657373207a65726f206973206e6f74206120766160008201527f6c6964206f776e65720000000000000000000000000000000000000000000000602082015250565b600061340360298361287a565b915061340e826133a7565b604082019050919050565b60006020820190508181036000830152613432816133f6565b9050919050565b7f4e46544d61726b65743a207072696365206d757374206265206772656174657260008201527f207468616e203000000000000000000000000000000000000000000000000000602082015250565b600061349560278361287a565b91506134a082613439565b604082019050919050565b600060208201905081810360008301526134c481613488565b9050919050565b600081905092915050565b60006134e18261286f565b6134eb81856134cb565b93506134fb81856020860161288b565b80840191505092915050565b600061351382856134d6565b915061351f82846134d6565b91508190509392505050565b60008190508160005260206000209050919050565b60006020601f8301049050919050565b600082821b905092915050565b60006008830261358d7fffffffffffffffffffffffffffffffffffffffffffffffffffffffffffffffff82613550565b6135978683613550565b95508019841693508086168417925050509392505050565b6000819050919050565b60006135d46135cf6135ca84612921565b6135af565b612921565b9050919050565b6000819050919050565b6135ee836135b9565b6136026135fa826135db565b84845461355d565b825550505050565b600090565b61361761360a565b6136228184846135e5565b505050565b5b818110156136465761363b60008261360f565b600181019050613628565b5050565b601f82111561368b5761365c8161352b565b61366584613540565b81016020851015613674578190505b61368861368085613540565b830182613627565b50505b505050565b600082821c905092915050565b60006136ae60001984600802613690565b1980831691505092915050565b60006136c7838361369d565b9150826002028217905092915050565b6136e08261286f565b67ffffffffffffffff8111156136f9576136f8612bac565b5b6137038254612f47565b61370e82828561364a565b600060209050601f831160018114613741576000841561372f578287015190505b61373985826136bb565b8655506137a1565b601f19841661374f8661352b565b60005b8281101561377757848901518255600182019150602085019450602081019050613752565b868310156137945784890151613790601f89168261369d565b8355505b6001600288020188555050505b505050505050565b7f4f776e61626c653a206e6577206f776e657220697320746865207a65726f206160008201527f6464726573730000000000000000000000000000000000000000000000000000602082015250565b600061380560268361287a565b9150613810826137a9565b604082019050919050565b60006020820190508181036000830152613834816137f8565b9050919050565b7f4552433732313a207472616e736665722066726f6d20696e636f72726563742060008201527f6f776e6572000000000000000000000000000000000000000000000000000000602082015250565b600061389760258361287a565b91506138a28261383b565b604082019050919050565b600060208201905081810360008301526138c68161388a565b9050919050565b7f4552433732313a207472616e7366657220746f20746865207a65726f2061646460008201527f7265737300000000000000000000000000000000000000000000000000000000602082015250565b600061392960248361287a565b9150613934826138cd565b604082019050919050565b600060208201905081810360008301526139588161391c565b9050919050565b7f4f776e61626c653a2063616c6c6572206973206e6f7420746865206f776e6572600082015250565b600061399560208361287a565b91506139a08261395f565b602082019050919050565b600060208201905081810360008301526139c481613988565b9050919050565b7f4e487b7100000000000000000000000000000000000000000000000000000000600052601160045260246000fd5b6000613a0582612921565b9150613a1083612921565b9250828202613a1e81612921565b91508282048414831517613a3557613a346139cb565b5b5092915050565b7f4e487b7100000000000000000000000000000000000000000000000000000000600052601260045260246000fd5b6000613a7682612921565b9150613a8183612921565b925082613a9157613a90613a3c565b5b828204905092915050565b7f4552433732313a20617070726f766520746f2063616c6c657200000000000000600082015250565b6000613ad260198361287a565b9150613add82613a9c565b602082019050919050565b60006020820190508181036000830152613b0181613ac5565b9050919050565b7f4552433732313a207472616e7366657220746f206e6f6e20455243373231526560008201527f63656976657220696d706c656d656e7465720000000000000000000000000000602082015250565b6000613b6460328361287a565b9150613b6f82613b08565b604082019050919050565b60006020820190508181036000830152613b9381613b57565b9050919050565b7f45524337323155524953746f726167653a2055524920736574206f66206e6f6e60008201527f6578697374656e7420746f6b656e000000000000000000000000000000000000602082015250565b6000613bf6602e8361287a565b9150613c0182613b9a565b604082019050919050565b60006020820190508181036000830152613c2581613be9565b9050919050565b600081519050919050565b600082825260208201905092915050565b6000613c5382613c2c565b613c5d8185613c37565b9350613c6d81856020860161288b565b613c76816128b5565b840191505092915050565b6000608082019050613c9660008301876129b6565b613ca360208301866129b6565b613cb06040830185612a9f565b8181036060830152613cc28184613c48565b905095945050505050565b600081519050613cdc816127e0565b92915050565b600060208284031215613cf857613cf76127aa565b5b6000613d0684828501613ccd565b91505092915050565b7f4552433732313a206d696e7420746f20746865207a65726f2061646472657373600082015250565b6000613d4560208361287a565b9150613d5082613d0f565b602082019050919050565b60006020820190508181036000830152613d7481613d38565b9050919050565b7f4552433732313a20746f6b656e20616c7265616479206d696e74656400000000600082015250565b6000613db1601c8361287a565b9150613dbc82613d7b565b602082019050919050565b60006020820190508181036000830152613de081613da4565b905091905056fea26469706673582212209717d597429f6e222f93f3082b625ad8762c467150d9967eb71a58c3ab8d624264736f6c63430008120033",
  "linkReferences": {},
  "deployedLinkReferences": {}
}